S015000053414D4432305F4932435F534C2E737265636D
S1130000482000200906000005060000050600003F
S113001000000000000000000000000000000000DC
S113002000000000000000000000000005060000C1
S113003000000000000000000506000005060000A6
S11300400506000005060000050600000506000080
S11300500506000005060000050600000506000070
S113006005060000A10600000506000005060000C4
S11300700506000005060000050600000506000050
S11300800506000005060000050600000506000040
S11300900506000005060000050600000506000030
S11300A00506000010B5064C2378002B07D1054B3C
S11300B0002B02D0044800E000BF0123237010BDD0
S11300C00400002000000000FC080000084B10B5EC
S11300D0002B03D00749084800E000BF0748036825
S11300E0002B00D110BD064B002BFBD09847F9E73D
S11300F00000000008000020FC080000FC080000CC
S1130100000000000C4B1B68002B06D1EFF310839A
S1130110002B07D00022094B1A70074A13680133D9
S11301201360704772B6BFF35F8F0022044B1A70DE
S11301300132024B1A70F0E7200000202400002056
S113014000000020084B1A68013A1A601B68002B53
S113015009D1064B1B78002B05D00122044B1A70E1
S1130160BFF35F8F62B67047200000202400002098
S113017000000020F0B583B001AC012565700027B4
S1130180A770257021000E20064EB0478022D201B0
S1130190054B9A612770657021000F20B04703B0AA
S11301A0F0BDC046AD0100000044004100B583B07D
S11301B001AB80221A700A785A704A789A708A7849
S11301C0DA701900014B984703B000BDA505000083
S11301D070B50C490B6A0478857840780122104088
S11301E080014026B34303432A40D2018020834345
S11301F013430322224012020348034013430B62B9
S113020070BDC04600080040FFFCFFFF072803D86C
S113021080001E4B1B589F46172036E01C4A136A69
S113022002210B43136200202FE0194A9369022133
S11302300B439361002028E0154A138A02210B43E3
S11302401382002021E0124A938A02210B439382F5
S113025000201AE00F4B1A6802210A431A601B6837
S11302600D4A13400A4A938411001022CB681A42A3
S1130270FCD0084A9168064BD962516899621268A9
S113028092B29A84002000E000207047BC0800006D
S113029000080040280000207FFF000030B585B032
S11302A0C222D2001A4B9A601A4A53681E218B4309
S11302B0536001236A4613700024174DE0B2694667
S11302C0A84701341C2CF9D103A80024447001254B
S11302D085700470114B98470620114B9847114BB9
S11302E09847114B1C725C729C72DC7201956B46D0
S11302F05C7006236A4613701472547269460020B7
S11303000A4B984700200A4B984705B030BDC046B9
S11303100008004000400041E1040000D101000059
S11303200D020000350300000004004059030000E2
S113033011040000064A936908210B4393610122CA
S1130340044B1A7019000B781342FCD17047C04655
S113035000040040000C004070B5060004000D7855
S11303602D0205434B78002B02D08023DB021D4372
S11303704B7A002B02D080231B031D4348680128BD
S113038010D9431E184234D1022830D90223002246
S113039001325B009842FBD81202324314008023DE
S11303A05B031D430B7A002B02D080239B031D4368
S11303B0134A53785BB2002BFBDB124B9847124B6A
S11303C01E700F4A53785BB2002BFBDB0C4B9C6016
S11303D01A0053785BB2002BFBDB094A5368802177
S11303E049020B401D435560084B984770BD0022DD
S11303F0D2E70402344380239B021D43D2E7C04664
S1130400000C004005010000080C004045010000FC
S113041010B504000B4A53785BB2002BFBDB0A4B8C
S113042098470A4B1C70074A53785BB2002BFBDBDE
S1130430044A516880235B020B435360044B984782
S113044010BDC046000C004005010000040C004033
S11304504501000010B50400064B9847064B1C707C
S1130460064A53888021C9010B435380044B9847A3
S113047010BDC04605010000020C0040000C004005
S11304804501000010B504000F4B98470F4B1C703A
S11304900F4A53881B05180F53880E490B4053808D
S11304A053880D490B40538011008022D2014B88A0
S11304B01342FCD106494A8803020648024013430A
S11304C04B80064B984710BD05010000020C00400C
S11304D0000C0040FFF0FFFFFFBFFFFF45010000DD
S11304E010B50C7824020443024B9847A4B2024B83
S11304F05C8010BD85040000000C004030B5D3784A
S1130500002B35D11378802B29D01B06802464025C
S1130510234354780225AC4306D19478002C20D18F
S11305208024A402234341605478013C012C1CD94B
S11305300D042D0CA024E4052C431C4384620D0CF3
S1130540D02424062C431C438462D478002C22D16A
S11305505B031CD59378012B1ED0416117E0002367
S1130560D7E7C024E4022343DDE70D4C2340DFE753
S113057041600C04240CA023DB05234383620C0C90
S1130580D0231B0623438362D378002B03D15378F3
S1130590013B012B02D930BD8161F8E78160FAE7A4
S11305A0FFFFFBFF10B50A00C1090023002904D195
S11305B04309DB0105498C4663441F242040012183
S11305C081401800024B984710BDC04600440041CA
S11305D0FD0400007047000010B5054B9847054B1B
S11305E09847054B9847054B9847054B984710BDCE
S11305F09D02000075010000D5050000D50500002E
S1130600D5050000FEE7000010B51A4A1A4B9A42BD
S113061011D01A00194B9A420DD2194A03339B1A6E
S11306209B0801339B000022134812498C588450C4
S113063004329A42FAD1134A134B9A420AD2D34350
S113064011495B1803218B4304339B18002102C218
S11306509342FCD10D4AFF210D4B8B4393600D4A0D
S113066053687F390B4353600B4B98470B4B9847A8
S1130670FEE7C046FC080000000000200400002043
S113068004000020040000204400002000ED00E0ED
S1130690000000000040004175080000350800001B
S11306A0334B9B7B9B0704D5314A937B02210B433D
S11306B093732F4B9B7B5B0713D52D4B1B8A1B0717
S11306C034D52C4B1B78022B21D0591C294A11708C
S11306D0294AD25C264B1A765968C02292020A43F0
S11306E05A60234B9B7BDB0710D5214B9A7B01215E
S11306F00A439A731B8A1B0705D41D4B197E1D4B95
S11307001B781D4AD15400221A4B1A7070471A4B99
S11307109A78174B1A765A68184911408022920227
S11307200A435A600022134B1A70DAE7114B1A7805
S1130730022A10D0511C0F4B19700D4B187E0E4914
S113074088545A680E490A405A605968C022920275
S11307500A435A60C5E7064B5A6809490A405A6079
S11307605A6806491140802292020A435A60B8E747
S1130770001000423C00002040000020FFFFFCFF6E
S1130780FFFFFBFF00B583B0074A136A10210B4338
S1130790136201A900230B700F20044B98470F200C
S11307A0034B984703B000BD00040040E10400007F
S11307B05504000010B50E4B48215A5C0124224315
S11307C05A543422985C393988439854985C0C39CB
S11307D0084398544920195C21431954995C3A38C8
S11307E001409954995C21300143995410BDC0468D
S11307F0004400410C4B19680220814319600B4AE4
S11308001A60802252005A6000225A6024325A61CF
S11308101D3A5A731A6802431A601B8A8022920096
S1130820034B1A607047C04600100042900020003D
S113083000E100E010B50A4B98470A4B98470A4B71
S113084098470A4B98470A4B802000028021C9012F
S113085000E099611A6A0242FBD15961FAE7C04685
S1130860D905000085070000B5070000F507000062
S11308700044004170B500260C4D0D4C641BA410BF
S1130880A64209D1002600F029F80A4D0A4C641B3F
S1130890A410A64205D170BDB300EB5898470136A9
S11308A0EEE7B300EB5898470136F2E7E80800009A
S11308B0E8080000E8080000EC0800003802000026
S11308C01802000018020000880200002A0200003A
S11308D0460200001C02000054020000F8B5C046A5
S11308E0F8BC08BC9E467047CD000000F8B5C04671
S10F08F0F8BC08BC9E467047A500000040
S10708FC01000000F3
S9030609ED
